{
  "contractName": "TruffleTutorial",
  "abi": [
    {
      "inputs": [],
      "stateMutability": "nonpayable",
      "type": "constructor"
    },
    {
      "inputs": [],
      "name": "message",
      "outputs": [
        {
          "internalType": "string",
          "name": "",
          "type": "string"
        }
      ],
      "stateMutability": "view",
      "type": "function"
    },
    {
      "inputs": [],
      "name": "owner",
      "outputs": [
        {
          "internalType": "address",
          "name": "",
          "type": "address"
        }
      ],
      "stateMutability": "view",
      "type": "function"
    },
    {
      "inputs": [
        {
          "internalType": "string",
          "name": "_message",
          "type": "string"
        }
      ],
      "name": "setMessage",
      "outputs": [
        {
          "internalType": "string",
          "name": "",
          "type": "string"
        }
      ],
      "stateMutability": "nonpayable",
      "type": "function"
    }
  ],
  "bytecode": "0x6080604052336000806101000a81548173ffffffffffffffffffffffffffffffffffffffff021916908373ffffffffffffffffffffffffffffffffffffffff1602179055503480156200005157600080fd5b506040518060400160405280600c81526020017f48656c6c6f20576f726c642100000000000000000000000000000000000000008152506001908162000098919062000319565b5062000400565b600081519050919050565b7f4e487b7100000000000000000000000000000000000000000000000000000000600052604160045260246000fd5b7f4e487b7100000000000000000000000000000000000000000000000000000000600052602260045260246000fd5b600060028204905060018216806200012157607f821691505b602082108103620001375762000136620000d9565b5b50919050565b60008190508160005260206000209050919050565b60006020601f8301049050919050565b600082821b905092915050565b600060088302620001a17fffffffffffffffffffffffffffffffffffffffffffffffffffffffffffffffff8262000162565b620001ad868362000162565b95508019841693508086168417925050509392505050565b6000819050919050565b6000819050919050565b6000620001fa620001f4620001ee84620001c5565b620001cf565b620001c5565b9050919050565b6000819050919050565b6200021683620001d9565b6200022e620002258262000201565b8484546200016f565b825550505050565b600090565b6200024562000236565b620002528184846200020b565b505050565b5b818110156200027a576200026e6000826200023b565b60018101905062000258565b5050565b601f821115620002c95762000293816200013d565b6200029e8462000152565b81016020851015620002ae578190505b620002c6620002bd8562000152565b83018262000257565b50505b505050565b600082821c905092915050565b6000620002ee60001984600802620002ce565b1980831691505092915050565b6000620003098383620002db565b9150826002028217905092915050565b62000324826200009f565b67ffffffffffffffff81111562000340576200033f620000aa565b5b6200034c825462000108565b620003598282856200027e565b600060209050601f8311600181146200039157600084156200037c578287015190505b620003888582620002fb565b865550620003f8565b601f198416620003a1866200013d565b60005b82811015620003cb57848901518255600182019150602085019450602081019050620003a4565b86831015620003eb5784890151620003e7601f891682620002db565b8355505b6001600288020188555050505b505050505050565b6108fd80620004106000396000f3fe608060405234801561001057600080fd5b50600436106100415760003560e01c8063368b8772146100465780638da5cb5b14610076578063e21f37ce14610094575b600080fd5b610060600480360381019061005b91906103fe565b6100b2565b60405161006d91906104cf565b60405180910390f35b61007e6101f2565b60405161008b9190610532565b60405180910390f35b61009c610216565b6040516100a991906104cf565b60405180910390f35b606060008054906101000a900473ffffffffffffffffffffffffffffffffffffffff1673ffffffffffffffffffffffffffffffffffffffff163373ffffffffffffffffffffffffffffffffffffffff1614610142576040517f08c379a0000000000000000000000000000000000000000000000000000000008152600401610139906105bf565b60405180910390fd5b600082511161015057600080fd5b816001908161015f91906107f5565b506001805461016d9061060e565b80601f01602080910402602001604051908101604052809291908181526020018280546101999061060e565b80156101e65780601f106101bb576101008083540402835291602001916101e6565b820191906000526020600020905b8154815290600101906020018083116101c957829003601f168201915b50505050509050919050565b60008054906101000a900473ffffffffffffffffffffffffffffffffffffffff1681565b600180546102239061060e565b80601f016020809104026020016040519081016040528092919081815260200182805461024f9061060e565b801561029c5780601f106102715761010080835404028352916020019161029c565b820191906000526020600020905b81548152906001019060200180831161027f57829003601f168201915b505050505081565b6000604051905090565b600080fd5b600080fd5b600080fd5b600080fd5b6000601f19601f8301169050919050565b7f4e487b7100000000000000000000000000000000000000000000000000000000600052604160045260246000fd5b61030b826102c2565b810181811067ffffffffffffffff8211171561032a576103296102d3565b5b80604052505050565b600061033d6102a4565b90506103498282610302565b919050565b600067ffffffffffffffff821115610369576103686102d3565b5b610372826102c2565b9050602081019050919050565b82818337600083830152505050565b60006103a161039c8461034e565b610333565b9050828152602081018484840111156103bd576103bc6102bd565b5b6103c884828561037f565b509392505050565b600082601f8301126103e5576103e46102b8565b5b81356103f584826020860161038e565b91505092915050565b600060208284031215610414576104136102ae565b5b600082013567ffffffffffffffff811115610432576104316102b3565b5b61043e848285016103d0565b91505092915050565b600081519050919050565b600082825260208201905092915050565b60005b83811015610481578082015181840152602081019050610466565b83811115610490576000848401525b50505050565b60006104a182610447565b6104ab8185610452565b93506104bb818560208601610463565b6104c4816102c2565b840191505092915050565b600060208201905081810360008301526104e98184610496565b905092915050565b600073ffffffffffffffffffffffffffffffffffffffff82169050919050565b600061051c826104f1565b9050919050565b61052c81610511565b82525050565b60006020820190506105476000830184610523565b92915050565b7f546869732066756e6374696f6e206973207265737472696374656420746f207460008201527f686520636f6e74726163742773206f776e657200000000000000000000000000602082015250565b60006105a9603383610452565b91506105b48261054d565b604082019050919050565b600060208201905081810360008301526105d88161059c565b9050919050565b7f4e487b7100000000000000000000000000000000000000000000000000000000600052602260045260246000fd5b6000600282049050600182168061062657607f821691505b602082108103610639576106386105df565b5b50919050565b60008190508160005260206000209050919050565b60006020601f8301049050919050565b600082821b905092915050565b6000600883026106a17fffffffffffffffffffffffffffffffffffffffffffffffffffffffffffffffff82610664565b6106ab8683610664565b95508019841693508086168417925050509392505050565b6000819050919050565b6000819050919050565b60006106f26106ed6106e8846106c3565b6106cd565b6106c3565b9050919050565b6000819050919050565b61070c836106d7565b610720610718826106f9565b848454610671565b825550505050565b600090565b610735610728565b610740818484610703565b505050565b5b818110156107645761075960008261072d565b600181019050610746565b5050565b601f8211156107a95761077a8161063f565b61078384610654565b81016020851015610792578190505b6107a661079e85610654565b830182610745565b50505b505050565b600082821c905092915050565b60006107cc600019846008026107ae565b1980831691505092915050565b60006107e583836107bb565b9150826002028217905092915050565b6107fe82610447565b67ffffffffffffffff811115610817576108166102d3565b5b610821825461060e565b61082c828285610768565b600060209050601f83116001811461085f576000841561084d578287015190505b61085785826107d9565b8655506108bf565b601f19841661086d8661063f565b60005b8281101561089557848901518255600182019150602085019450602081019050610870565b868310156108b257848901516108ae601f8916826107bb565b8355505b6001600288020188555050505b50505050505056fea26469706673582212207a16ebb58b8c210228cec59e64863fb6ad3728dacd4bbd860fe7b50bed7283ab64736f6c634300080f0033",
  "immutableReferences": {},
  "source": "pragma solidity >=0.4.22 <0.9.0;\n\ncontract TruffleTutorial {\n  address public owner = msg.sender;\n  string public message;\n\n  // this function runs when the contract is deployed\n  constructor() public {\n    // set initial message\n    message = \"Hello World!\";\n  }\n\n  modifier ownerOnly() {\n    require(\n      msg.sender == owner,\n      \"This function is restricted to the contract's owner\"\n    );\n    _;\n  }\n\n  // function that only contract owner can run, to set a new message\n  function setMessage(string memory _message)\n    public\n    ownerOnly\n    returns(string memory)\n  {\n    // message must not be empty\n    require(bytes(_message).length > 0);\n\n    // set new message\n    message = _message;\n    return message;\n  }\n}\n\n",
  "sourcePath": "/workspace/blockchain/contract_on_goerli_using_infura/contracts/TruffleTutorial.sol",
  "compiler": {
    "name": "solc",
    "version": "0.8.15+commit.e14f2714.Emscripten.clang"
  },
  "schemaVersion": "3.4.8",
  "updatedAt": "2022-07-27T01:45:58.267Z",
  "devdoc": {
    "kind": "dev",
    "methods": {},
    "version": 1
  },
  "userdoc": {
    "kind": "user",
    "methods": {},
    "version": 1
  }
}